:10000000021FA2EFA2E7132432FF220218F0781495
:100010007420F2187401F27BFE7A007913E4FF0277
:020020001BCEF5
:1000230002244112263A12000E12285C12284712AB
:10003300284E12260D1227E9D2AF1227B20222430D
:1000430002234EED7011EF24FBFE7850F208EFF21D
:1000530008F208EEF2801BED7850B4020DEFF224A3
:10006300FB08F208F208EFF28008EFF208F208F258
:1000730008F278547C007DFE7BFE7A0079507E0086
:100083007F041206DE021E2202239FAE0702280B04
:100093000223F0EC4D6011E8497017ED33EC3304A3
:1000A300600DE4FCFFFEFD22E933E8330470F8023F
:1000B300035F12032A58046009E4CC248150062804
:1000C3005009020369284003020366C0E0EB4A704B
:1000D30044B98006D0E0FB020355EF4E701CBD808F
:1000E30008EBFFEAFEE9FD80EBE98DF0A4FEE5F005
:1000F30002017FE9CDF9EAFEEBFFEF89F0A4FCE50D
:10010300F0CE89F0A42EFFE435F0CD89F0A42DFEC6
:10011300E435F08067EF4E7005BD80D780C3EF8B69
:10012300F0A4ACF0EE8BF0A42CFCE435F0F8EF8AED
:10013300F0A42CE5F038FCE433CB8DF0A42CFCE5E3
:10014300F03BF8EE8AF0A42CFCE5F038F8E433CF6A
:1001530089F0A42CFCE5F038CF3400CE89F0A42F2D
:10016300FFE5F03EFEE433C98DF0A42EFEE5F03941
:10017300CD8AF0A42FFFE5F03EFEE43DFD33D0E051
:10018300FB50070BBB000F020369EC2CFCEF33FFA2
:10019300EE33FEED33FD020341020369EC5D0460BF
:1001A30005E85904700302035F12032A580460F63A
:1001B300EC4860F2EC7004FDFEFF22C860DB248192
:1001C300C85009C398600250060203669850CAF5E6
:1001D30082E9294B4A7005AB8202035575F0007C16
:1001E3001A7880C3EF9BEE9AED99400DC3EF9BFF06
:1001F300EE9AFEED99FDE842F0DC23ACF0D0E0FF8F
:10020300D0E0FED0E0FDAB8220E7101BEB60BAEC40
:100213002CFCEF33FFEE33FEED33FD020341E80325
:10022300F830E705C0F075F000EF2FFFEE33FEED79
:1002330033FD40B830E7C280AA74F8CC6480CCC8E0
:100243006480C8F58204604FC3EB9FF5F0EA9E42D9
:10025300F0E99D42F0E89C45F0603C501DE5825F6B
:10026300FFE582D313CB5BCBF42B5582FB50280ADB
:10027300BA002409B9002008801DE5825BFBE582F2
:10028300D313CF5FCFF4C3132F5582FF50090EBE94
:1002930000050DBD00010CC3EB9FF5F0EA9E42F093
:1002A300E99D42F0E89C45F06007CC4820E701B3A4
:1002B300EC2275F020800E75F010800575F0087D36
:1002C300007E007F003392D530D503120924EC332E
:1002D3004010EF33FFEE33FEED33FDEC33FCD5F08E
:1002E300ED22E5F0247EA2D513CC92E7CDCEFF22FA
:1002F300EDD2E7CD33EC3392D524814006E4FFFE03
:10030300FDFC22FCE4CFCECDCC24E0501174FF8061
:10031300EDC3CC13CCCD13CDCE13CECF13CF0470FE
:10032300F030D5DE020924E9D2E7C933E833F89285
:10033300D5EDD2E7CD33EC33FC5002B2D522EC300D
:10034300E7100FBF000C0EBE00080DBD00040BEB41
:100353006014A2D5EB13FCED92E7FD2274FFFCFDC4
:10036300FEFF22E480F8A2D574FF13FC7D80E480B5
:10037300EFF920E72824F950037907E4F42402FB7A
:1003830018DBFDE224FB5014E9600DE4F218E204EB
:10039300F2B40A08E4F2D9F57401F20A22C2D522B2
:1003A300ED33EC3392D5FA602AB4FF33EDC2E77B29
:1003B300FF60067A0379C8E4227A0379D120D50451
:1003C3007A0379CC224E614E002B494E46002D49CB
:1003D3004E4600E47A08F208DAFC7B00740722E850
:1003E300C0E0ECC0E0EDC0E0EEC0E0EFC0E0EA75D5
:1003F300F010A4CAABF075F04DA42BFBE435F0FC70
:10040300EA2410FAEB34C5FBEC34D9FCEDC2E7FF68
:1004130075F056A4F42411C5F0F434C58FF0A42A62
:10042300E5F03BE43CF220E7141205CED0E0FFD028
:10043300E0FED0E0FDD0E0FC12019F8014F4041232
:1004430005CED0E0FFD0E0FED0E0FDD0E0FC12000E
:1004530096D0E0F8E2FAEDD2E7CD33EC332482FB19
:10046300E4C3CF33CFCE33CECD33CD33DBF37B07F2
:1004730075F00A846004F2081B0AE5F0F2088FF0B5
:10048300740AA4FFACF08EF0740AA42CFEACF050F6
:10049300010C8DF0740AA42CFDE435F0F208DBDEC8
:1004A30074072202035FE86480F8E933E8336011DC
:1004B3000460F0ED33EC337009E8FCE9FDEAFEEB90
:1004C300FF220460DED3EB9FEA9EE99DE8C2E78C3E
:1004D300F0C2F795F0400CE8CCF8E9CDF9EACEFA92
:1004E300EBCFFB12032A85D0F05804700320D5B359
:1004F300E80470075002B2D502036992D5EC046098
:10050300F7E4CCC0E0C398F8603B94186008400D52
:10051300D0E0FB020341E4FBFAC9FC8028E830E4A5
:1005230006E4C9FBE4CAFCE830E305E4C9CACBFC32
:10053300E854076010F8C3E913F9EA13FAEB13FB65
:10054300EC13FCD8F130F52FC3E49CFCEF9BFFEEDA
:100553009AFEED99FDD0E0FBEF4E4D4C701222DB7D
:1005630003020366EC2CFCEF33FFEE33FEED33FDA9
:10057300ED30E7EB020341EF2BFFEE3AFEED39FDE1
:10058300D0E0FB50130BBB0003020369ED13FDEE38
:1005930013FEEF13FFEC13FC0203413F8000004105
:1005A30020000042C80000447A0000461C40004777
:1005B300C35000497424004B1896804CBEBC205A8B
:1005C3000E1BCA6753C21C749DC5AEFB600654075D
:1005D300601C23231205FCEB543860091205E81252
:1005E30005F7120096ECF8EDF9EEFAEFCB22EB12D9
:1005F30005F780F1543803241C90059EFE93FC0EEE
:10060300EE93FD0EEE930ECE93FF22E709F608DF7D
:10061300FA8046E709F208DFFA803E88828C83E796
:1006230009F0A3DFFA8032E309F608DFFA8078E302
:1006330009F208DFFA807088828C83E309F0A3DF74
:10064300FA806489828A83E0A3F608DFFA805889F6
:10065300828A83E0A3F208DFFA804C80D280FA809A
:10066300C680D4806980F28033801080A680EA80BF
:100673009A80A880DA80E280CA803389828A83ECF8
:10068300FAE493A3C8C582C8CCC583CCF0A3C8C57C
:1006930082C8CCC583CCDFE9DEE7800D89828A83FB
:1006A300E493A3F608DFF9ECFAA9F0EDFB228982C3
:1006B3008A83ECFAE0A3C8C582C8CCC583CCF0A377
:1006C300C8C582C8CCC583CCDFEADEE880DB89827B
:1006D3008A83E493A3F208DFF980CC88F0EF60010A
:1006E3000E4E60C388F0ED2402B4040050B9F582C5
:1006F300EB2402B4040050AF232345822390065E0B
:1007030073BB010689828A83E0225002E722BBFE83
:1007130002E32289828A83E49322BB010CE58229C6
:10072300F582E5833AF583E0225006E92582F8E66F
:1007330022BBFE06E92582F8E222E58229F582E55D
:10074300833AF583E49322BB010689828A83F022EC
:100753005002F722BBFE01F322EF8DF0A4A8F0CFE5
:100763008CF0A428CE8DF0A42EFE22C2D5EC30E767
:1007730009B2D5E4C39DFDE49CFCEE30E715B2D588
:10078300E4C39FFFE49EFE1209F0C3E49DFDE49CD5
:10079300FC80031209F030D507C3E49FFFE49EFEFB
:1007A30022BB010A89828A83E0F5F0A3E022500686
:1007B30087F009E71922BBFE07E3F5F009E31922E5
:1007C30089828A83E493F5F074019322BB0110E5D7
:1007D3008229F582E5833AF583E0F5F0A3E0225020
:1007E30009E92582F886F008E622BBFE0AE925829C
:1007F300F8E2F5F008E222E5832AF583E993F5F0C0
:10080300A3E99322E88FF0A4CC8BF0A42CFCE98E0F
:10081300F0A42CFC8AF0EDA42CFCEA8EF0A4CDA865
:10082300F08BF0A42DCC3825F0FDE98FF0A42CCD6E
:1008330035F0FCEB8EF0A4FEA9F0EB8FF0A4CFC54E
:10084300F02ECD39FEE43CFCEAA42DCE35F0FDE4D8
:100853003CFC2275F008758200EF2FFFEE33FECDCE
:1008630033CDCC33CCC58233C5829BED9AEC99E56D
:100873008298400CF582EE9BFEED9AFDEC99FC0FFD
:10088300D5F0D6E4CEFBE4CDFAE4CCF9A88222B8C5
:1008930000C1B90059BA002DEC8BF084CFCECDFC4A
:1008A300E5F0CBF97818EF2FFFEE33FEED33FDECD7
:1008B30033FCEB33FB10D703994004EB99FB0FD8C0
:1008C300E5E4F9FA227818EF2FFFEE33FEED33FD5E
:1008D300EC33FCC933C910D7059BE99A4007EC9B5D
:1008E300FCE99AF90FD8E0E4C9FAE4CCFB2275F0ED
:1008F30010EF2FFFEE33FEED33FDCC33CCC833C8FE
:1009030010D7079BEC9AE899400AED9BFDEC9AFC03
:10091300E899F80FD5F0DAE4CDFBE4CCFAE4C8F9B2
:1009230022C3E49FFFE49EFEE49DFDE49CFC22EBD6
:100933009FF5F0EA9E42F0E99D42F0E89C45F022E3
:10094300E8600FECC313FCED13FDEE13FEEF13FF92
:10095300D8F122BB010DE58229F582E5833AF583BF
:10096300020A525007E92582F8020A45BBFE07E94D
:100973002582F8020A5EE58229F582E5833AF5834A
:10098300020A6BECF208EDF208EEF208EFF222D065
:1009930083D082E493F208740193F208740293F211
:1009A30008740393F2740473FAE2FB0808E2F9256E
:1009B300F0F218E2CA3AF222EBF208EAF208E9F29C
:1009C30022D083D082F8E4937012740193700DA344
:1009D300A393F8740193F5828883E4737402936894
:1009E30060EFA3A3A380DF8A838982E473BC000B37
:1009F300BE0029EF8DF084FFADF022E4CCF875F052
:100A030008EF2FFFEE33FEEC33FCEE9DEC98400530
:100A1300FCEE9DFE0FD5F0E9E4CEFD22EDF8F5F0F6
:100A2300EE8420D21CFEADF075F008EF2FFFED33FE
:100A3300FD4007985006D5F0F222C398FD0FD5F07C
:100A4300EA22E6FB08E6F908E6FA08E6CBF822E034
:100A5300F8A3E0F9A3E0FAA3E0FB22E2FB08E2F942
:100A630008E2FA08E2CBF822E493F8740193F974EC
:100A73000293FA740393FB22781DEBF208EAF2085F
:100A8300E9F2781CEFF264016003020C3E7869F22C
:100A930008F208F208F208F27820F208F27820E26D
:100AA300FE08E2FFC39480EE9400501774D22FF532
:100AB3008274013EF583E4F0E22401F218E234008B
:100AC300F280DAE47820F208F27820E2FE08E2FF0E
:100AD300C39480EE9400501774922FF58274003EF5
:100AE300F583E4F0E22401F218E23400F280DA78CC
:100AF3001DE2FB08E2FA08E2F9120704FFE5985445
:100B03003F4FF598EF64C06008EF64406003020B49
:100B1300EB9000021209567F807E8D7D5B7C001274
:100B230008927822120986E4FFFE7D01FC7822E216
:100B3300FB08E2F908E2FA08E2CBF8C312093240F3
:100B4300037FFF227822E2FB08E2F908E2FA08E2D7
:100B5300CBF8C3E49BFFE49AFE740199FDE498FC8F
:100B63007822120986781DE2FB08E2FA08E2F9907E
:100B7300000112071DFB64017036C28E538EFE53B3
:100B830089BF5389CF438E407822E2FC08E2FD08F7
:100B9300E2FE08E2FF78081209438F8D78220808E5
:100BA30008E2F58BC2AB5389BF538FFDD28E8070A1
:100BB300EB64027030538EEF438E01538EF7438EF6
:100BC300047822E2FC08E2FD08E2FE08E2FF78086E
:100BD3001209438FD67822080808E2F5D753AFFBF2
:100BE300438E10803B7FFF22781DE2FB08E2FA0868
:100BF300E2F9120704FF701390000812071DB401F5
:100C030005438E20801A538EDF8015EFB480119038
:100C1300000812071DB40105438780800353877FB3
:100C2300781DE2FB08E2FA08E2F990000712071DBB
:100C33007004C29C8002D29C7F0022781CE2640272
:100C43006003020D72786EF208F208F208F208F2FD
:100C53007820F208F27820E2FE08E2FFC39480EEE7
:100C63009400501774722FF58274023EF583E4F0FA
:100C7300E22401F218E23400F280DAE47820F20888
:100C8300F27820E2FE08E2FFC39480EE940050174E
:100C930074122FF58274013EF583E4F0E22401F22D
:100CA30018E23400F280DA781DE2FB08E2FA08E287
:100CB300F9120704FF64C06008EF64406003020D8B
:100CC30051EFB4C005439A808003539A7F9000028A
:100CD3001209567F807E8D7D5B7C001208927822FC
:100CE300120986E4FFFE7D01FC7822E2FB08E2F9AB
:100CF30008E2FA08E2CBF8C312093240037FFF226D
:100D03007822E2FB08E2F908E2FA08E2CBF8C3E44E
:100D13009BFFE49AFE740199FDE498FC7822120982
:100D230086538EEF538EF7438E047822E2FC08E25B
:100D3300FD08E2FE08E2FF78081209438FD6782205
:100D4300080808E2F5D753AFFB438E1080037FFFFB
:100D530022781DE2FB08E2FA08E2F9900007120785
:100D63001DC454F0FFE59A54EF4FF59A7F002278A3
:100D73001CE264036003020EED7873F208F208F2DA
:100D830008F208F27820F208F27820E2FE08E2FF87
:100D9300C39440EE9400501774F22FF58274023E10
:100DA300F583E4F0E22401F218E23400F280DAE49D
:100DB3007820F208F27820E2FE08E2FFC39440EEC6
:100DC3009400501774922FF58274013EF583E4F07A
:100DD300E22401F218E23400F280DA781DE2FB0823
:100DE300E2FA08E2F9120704FF64C06008EF644006
:100DF3006003020ECCEFB4C00543AC80800353AC58
:100E03007F9000021209567F807E8D7D5B7C0012ED
:100E130008927822120986E4FFFE7D01FC7822E223
:100E2300FB08E2F908E2FA08E2CBF8C31209324000
:100E3300037FFF227822E2FB08E2F908E2FA08E2E4
:100E4300CBF8C3E49BFFE49AFE740199FDE498FC9C
:100E53007822120986781DE2FB08E2FA08E2F9908B
:100E6300000112071DFB6403702743AC407822E2A4
:100E7300FC08E2FD08E2FE08E2FF78081209438F4E
:100E8300D47822080808E2F5D553D1F043D10A807B
:100E93003BEB64027030538EEF53ACBF538EF7437A
:100EA3008E047822E2FC08E2FD08E2FE08E2FF7805
:100EB300081209438FD67822080808E2F5D753AF02
:100EC300FB438E1080067FFF227FFF22781DE2FB0B
:100ED30008E2FA08E2F990000712071DC454F0FF74
:100EE300E5AC54EF4FF5AC7F0022781CE26404605C
:100EF300030210687878F208F208F208F208F27830
:100F030020F208F27820E2FE08E2FFC39420EE9478
:100F130000501774322FF58274033EF583E4F0E238
:100F23002401F218E23400F280DAE47820F208F2C5
:100F33007820E2FE08E2FFC39420EE940050177479
:100F4300522FF58274023EF583E4F0E22401F21895
:100F5300E23400F280DA781DE2FB08E2FA08E2F9F3
:100F6300120704FF64C06008EF6440600302104787
:100F7300EFB4C005438480800353847F9000021242
:100F830009567F807E8D7D5B7C0012089278221249
:100F93000986E4FFFE7D01FC7822E2FB08E2F90802
:100FA300E2FA08E2CBF8C312093240037FFF22784A
:100FB30022E2FB08E2F908E2FA08E2CBF8C3E49B79
:100FC300FFE49AFE740199FDE498FC7822120986E5
:100FD300781DE2FB08E2FA08E2F990000112071D0E
:100FE300FB640470274384407822E2FC08E2FD0896
:100FF300E2FE08E2FF78081209438FD2782208083C
:1010030008E2F5D353D10F43D1A0803BEB640270C8
:1010130030538EEF5384BF538EF7438E047822E20E
:10102300FC08E2FD08E2FE08E2FF78081209438F9C
:10103300D67822080808E2F5D753AFFB438E108019
:10104300067FFF227FFF22781DE2FB08E2FA08E217
:10105300F990000712071DC454F0FFE58454EF4FC5
:10106300F5847F00227FFF22E50E242DF8E2050E92
:1010730022782A300702782DE475F0011209AB02B9
:1010830007042000EB7F2ED2008018EF540F24902A
:10109300D43440D4FF30040BEF24BFB41A00500300
:1010A3002461FFE50F6002150F0512E512700205BA
:1010B3001130070D782AE475F0011209ABEF02072E
:1010C3004A02008E7403D2078003E4C207F50E7848
:1010D3002A1209BBE4F50FF511F512E50F60077F3E
:1010E300201210A680F57510FFC201C200C202C211
:1010F30003C205C206C208121074FF700D30070543
:101103007F001210B7AF12AE1122B4255FC2D5C251
:1011130004121074FF24D0B40A00501A75F00A7830
:101123000F30D50508B6FF0106C6A426F620D50460
:101133007002D20380D924CFB41A00EF5004C2E561
:10114300D2040213A3D20180C6D20080C0D202808F
:10115300BCD2D580BAD20580B47F201210A620025B
:10116300077401B50F0040F112106BFF1210A602B5
:1011730010DED208D206809512106BFB12106BFAA8
:1011830012106BF94A4B7006799A7A147BFF20028E
:101193002EE50F602A7E008E8275830012071D6084
:1011A300060EEE651070F0C2D5EBC0E0EAC0E0E9D0
:1011B300C0E0EE121403D0E0F9D0E0FAD0E0FB1265
:1011C3000704FF60AAEBC0E0EAC0E0E9C0E0121048
:1011D300A6D0E02401F9D0E03400FAD0E0FBE5101A
:1011E3000460DCD510D98087D20280A21213E66096
:1011F300F7E510700104120374A910600DE5106087
:101203000914F51012148DEF60F3EA30E702F404C9
:10121300C3995077EAF425100430E701E404F5108C
:10122300800D1213E660C1EA05102510120374EA5B
:101233007840F230E701E4251004D51004200501BD
:1012430014121403E4C0E012148D7840E2601320FA
:10125300E70714F212108E802204F2D0E014C0E0EB
:101263007F0012108EE51060071210851510800B99
:10127300300503121085D0E00210DED0E00480C5F3
:101283001213E660A0E510041203747840EAF2E555
:1012930010200502600104240412140374FF04C027
:1012A300E012148D12108EE5102005026003121057
:1012B30085D0E0B510E87F451210987840E27F2B87
:1012C30030E7047F2DF404C0E01210A6D0E075F0DF
:1012D3000A84C0F012108FD0E012108F0210DE7952
:1012E3001080027908C206C2088008D2D5790A8024
:1012F30004790AC2D5E510047002F510E4FAFDFE84
:10130300FF12106BFC7B0820011312106BFD7B1086
:1013130030000A12106BFE12106BFF7B20EC33823D
:10132300D592D55013C3E43000069FFFE49EFEE43C
:101333002001039DFDE49CFCE4CBF8C201EC700C9E
:10134300CFCECDCCE824F8F870F38017C3EF33FF8A
:10135300EE33FEED33FDEC33FCEB33FB994002FB44
:101363000FD8E9EB300105F8D0E0C448B201C0E082
:101373000AEC4D4E4F78207B0070C2EAB510004056
:10138300BCC0E0121405D0F0D0E0200104C4C0E0DA
:10139300C4B201C0F012108FD0F0D5F0EB0210DE12
:1013A3001209C4117B5312E258114C4C11484212DA
:1013B300E64F12EE4412EE4911614312F455122521
:1013C3004612834511EF4714BA5011502D11542E74
:1013D30011772B11582311752014A32A11104800DB
:1013E30000116FE510B4FF0375100612106BFC12A9
:1013F300106BFD12106BFE12106BFF78390203A302
:10140300790AA2D5200314300509B910020404B9DE
:10141300080104A2D52006025001042002689202AA
:10142300B50F005034C0E07F203003197F30A20293
:1014330072067205500F12145CC202C206C205C2C4
:10144300087F30800F300503E9C0E01210A6300595
:1014530003D0E0F9D0E0B50FCC3005177F30B910D9
:101463000C1210A67F583004077F788003B9080355
:101473001210A63002057F2D0210A67F202008F847
:101483007F2B2006F322920280CF7F00B407005007
:10149300052439F8E2FF22286E756C6C2900D2010D
:1014A30012106B3001F8C201780F30D50108F60233
:1014B30011102D5043495812106B2403B4050040FA
:1014C30001E49014B593121097743A121097D20353
:1014D300750F040212E2AD07ED6401707A90FECC41
:1014E300E054FEF0E054FBF090FEC8E054FCF01230
:1014F3000704FF90FEC8E0548F4FF09000061207D8
:101503001DFF90FECC30E00DE04401F090FEB1E011
:101513004401F0800BE054FEF090FEB1E054FEF085
:10152300EF90FECC30E10DE04404F090FEB1E044D6
:1015330002F0800BE054FBF090FEB1E054FDF0901C
:1015430000031207CFE5F090FED5F09000031207D9
:10155300CF90FED6021893ED6402707A90FECCE031
:1015630054EFF0E054BFF090FEC9E054FCF01207D2
:1015730004FF90FEC9E0548F4FF090000612071D40
:10158300FF90FECC30E20DE04410F090FEB1E04459
:1015930004F0800BE054EFF090FEB1E054FBF0EF69
:1015A30090FECC30E30DE04440F090FEB1E04408FF
:1015B300F0800BE054BFF090FEB1E054F7F09000E0
:1015C300031207CFE5F090FED7F09000031207CF88
:1015D30090FED8021893ED6403707A90FECDE05428
:1015E300FEF0E054FBF090FECAE054FCF012070456
:1015F300FF90FECAE0548F4FF090000612071DFFC4
:1016030090FECD30E40DE04401F090FEB1E04410D3
:10161300F0800BE054FEF090FEB1E054EFF0EF9059
:10162300FECD30E50DE04404F090FEB1E04420F03F
:10163300800BE054FBF090FEB1E054DFF090000328
:101643001207CFE5F090FED9F09000031207CF9078
:10165300FEDA021893ED6404707A90FECDE054EF45
:10166300F0E054BFF090FECBE054FCF0120704FF0F
:1016730090FECBE0548F4FF090000612071DFF90B1
:10168300FECD30E60DE04410F090FEB1E04440F0B2
:10169300800BE054EFF090FEB1E054BFF0EF90FE0A
:1016A300CD30E70DE04440F090FEB1E04480F0809F
:1016B3000BE054BFF090FEB1E0547FF090000312B2
:1016C30007CFE5F090FEDBF09000031207CF90FE0A
:1016D300DC021893ED6480704F90000512071D9093
:1016E300FEDEF09000011207CFE5F090FED2F090FD
:1016F30000011207CF90FED3F090000812071D904F
:10170300FEDDB40106E04480F08004E0547FF090F5
:10171300000712071D90FEC0B40106E04401F080EB
:1017230004E054FEF07F0022ED6405705690FEEC59
:10173300E054FEF090FEE8E054FCF0120704FF9042
:10174300FEE8E0548F4FF090000612071D90FEEC68
:1017530030E00DE04401F090FEB5E04401F0800B71
:10176300E054FEF090FEB5E054FEF0900003120743
:10177300CFE5F090FEF5F09000031207CF90FEF650
:10178300021893ED6406705690FEECE054EFF0906F
:10179300FEE9E054FCF0120704FF90FEE9E0548FE9
:1017A3004FF090000612071D90FEEC30E20DE0446E
:1017B30010F090FEB5E04404F0800BE054EFF0909D
:1017C300FEB5E054FBF09000031207CFE5F090FE66
:1017D300F7F09000031207CF90FEF8021893ED6420
:1017E30007705590FEEDE054FEF090FEEAE054FCE5
:1017F300F0120704FF90FEEAE0548F4FF0900006CA
:1018030012071D90FEED30E40DE04401F090FEB5AB
:10181300E04410F0800BE054FEF090FEB5E054EF8E
:10182300F09000031207CFE5F090FEF9F09000036B
:101833001207CF90FEFA8058ED6408705790FEEDC2
:10184300E054EFF090FEEBE054FCF0120704FF903D
:10185300FEEBE0548F4FF090000612071D90FEED53
:1018630030E60DE04410F090FEB5E04440F0800B0C
:10187300E054EFF090FEB5E054BFF0900003120780
:10188300CFE5F090FEFBF09000031207CF90FEFC33
:10189300F07F0022ED6481704C90000512071D90CB
:1018A300FEFEF09000011207CFFDACF0EC90FEF2CB
:1018B300F0AF05A3EFF090000812071D90FEFDB4F2
:1018C3000106E04480F08004E0547FF090000712AA
:1018D300071D90FEE0B40106E04401F08004E054EB
:1018E300FEF07F00227FFF22C2AF80FE321218EF8C
:1018F30085D00B75D008AAE0C28CE58A24F7F58A57
:10190300E58C34D8F58CD28CEC2414F8E6BC0702B1
:1019130074FFC39581B4140040CE7908782216E68B
:1019230008700BC2AFE630E1034418F6D2AF08D912
:10193300EDEA8BD030090122D50DFCC0E0C0D0C048
:10194300F0C083C082C000C001C002C003C004C095
:1019530005C006C007E50C232423F87440C2AF4634
:10196300F6D2AFD209E50CFF232423F80F0808BFF2
:1019730008047F007823E630E4F200E50CC39F50AF
:1019830020050C7413250CF8E6FDA68108E6AE0CC1
:10199300BE070274FFCDF8E86D60E008E6C0E080A2
:1019A300F6E50CD39F4027E50C2414F8E6AE0CBEF5
:1019B300070274FFFD18E6CDF8E5816D6006D0E0FF
:1019C300F61880F5E50C2413C8F6150C80D3750DB5
:1019D30005E50C232423F87F04C2AFE610E61E308E
:1019E300E00310E20C7F0030E10730E3047F08548A
:1019F300F4547CC6D2AF54804207C20922F6D2AF58
:101A0300D007D006D005D004D003D002D001D00037
:101A1300D082D083D0F0D0D0D0E0C209227813A6F0
:101A23008174076006FF0876FFDFFB7F08E47822F6
:101A3300F608F608DFFA782376309027FB740193D3
:101A4300C0E0E493C0E0750D05438901758AF07524
:101A53008CD8D28CD2AFD2A92207EFD394074003FC
:101A63007FFF2274232F2FF8E620E5F4C2AFE6446C
:101A730030F6D2AFAE0CEEC39F50210E74132EF886
:101A8300E6F908E618BE070274FFFDED696009096F
:101A9300E71919F7090980F3161680DAEED39F4088
:101AA3000405810581EED39F402274132EF808E6C6
:101AB300F9EEB50C02A981180606E6FDED69600989
:101AC3001919E70909F71980F31E80D9EF2413F8D0
:101AD300E604F8EF2F049027FB93F608EF2F93F615
:101AE3007F0022EFD3940740037FFF22EF232423B9
:101AF300F8E630E5F4C2AFE6548CF6D2AFE50CB5A8
:101B0300070A74132FF8E6F581021966502E741430
:101B13002FF8E6BF070274FFFD18E6F974132FF8D8
:101B2300FBE6FCE96C6008A805E7F61D1980F4A83C
:101B330003A6051FE50CB507E37F002274142FF8F5
:101B4300E6FD1886010F74132FF8A601088604E535
:101B53000CB50702AC81ED6C60080D09A805E6F72A
:101B630080F4E50CB507DE89817F00228FF0E4FF66
:101B7300FEE50C232422F8C2A930F70D7F08E660A6
:101B83000B2DF660325030800730F106EDF66027FA
:101B93007E020830F010C2AFE610E7250E30E20CEB
:101BA300D2AF7F048014C2AFE610E71554EC4EF6B3
:101BB300D2AFD2A90219667F0808EF4483F4C2AFFB
:101BC30056C6D2AFD2A954804FFF22EFD394074019
:101BD300037FFF22120704FED3940340037FFF22F7
:101BE300EF7041EE700B90000112071DF4529352F7
:101BF30094120704B4010B90000112071D4293F4E1
:101C03005294120704FEB4020A90000112071D4207
:101C1300934294EEB4030D90000112071DFEF4529B
:101C230093EE4294EF64017043120704FE700B902D
:101C3300000112071DF452915292EEB4010B900071
:101C43000112071D4291F45292120704B4020A9042
:101C5300000112071D42914292120704B4030D9032
:101C6300000112071DFEF45291EE4292EF640270DE
:101C730043120704FE700B90000112071DF45295E6
:101C83005296EEB4010B90000112071D4295F452D7
:101C930096120704B4020A90000112071D429542EE
:101CA30096120704B4030D90000112071DFEF452AF
:101CB30095EE4296EF64037043120704FE700B9097
:101CC300000112071DF452B152B2EEB4010B9000A1
:101CD3000112071D42B1F452B2120704B4020A9072
:101CE300000112071D42B142B2120704B4030D9062
:101CF300000112071DFEF452B1EE42B2EF6404700C
:101D030043120704FE700B90000112071DF452B337
:101D130052B4EEB4010B90000112071D42B3F4520A
:101D2300B4120704B4020A90000112071D42B34221
:101D3300B4120704B4030D90000112071DFEF45200
:101D4300B3EE42B4EF64057043120704FE700B90C8
:101D5300000112071DF452C952CAEEB4010B9000E0
:101D63000112071D42C9F452CA120704B4020A90B1
:101D7300000112071D42C942CA120704B4030D90A1
:101D8300000112071DFEF452C9EE42CAEF64067049
:101D930043120704FE700B90000112071DF452CB8F
:101DA30052CCEEB4010B90000112071D42CBF4524A
:101DB300CC120704B4020A90000112071D42CB4261
:101DC300CC120704B4030D90000112071DFEF45258
:101DD300CBEE42CCEF64077043120704FF700B9005
:101DE300000112071DF452E152E2EFB4010B90001F
:101DF3000112071D42E1F452E2120704B4020A90F1
:101E0300000112071D42E142E2120704B4030D90E0
:101E1300000112071DFFF452E1EF42E27F00227836
:101E230054E2FF1200037858E4F208EFF27855E227
:101E3300FF120003785AE4F208EFF27856E2FF1239
:101E43000003785CE4F208EFF27857E2FF12000334
:101E5300785EE4F208EFF27861745DF20874BEF222
:101E63007865740AF278677401F208F27BFE7A00EF
:101E730079607F801214D97858E2FE08E2FFEE33CE
:101E830095E0FDFCE47BBF7A5DF9F8120807E47B7B
:101E930064FAF9F81224D37863EEF208EFF278606B
:101EA3007460F27854E27F0060027F307866EFF26C
:101EB3007BFE7A0079607F031214D9785AE2FE0818
:101EC300E2FFEE3395E0FDFCE47BBF7A5DF9F812A7
:101ED3000807E47B64FAF9F81224D37863EEF20876
:101EE300EFF278607470F27855E27F0060027FC091
:101EF3007866EFF27BFE7A0079607F041214D9785A
:101F03005CE2FE08E2FFEE3395E0FDFCE47BBF7A82
:101F13005DF9F8120807E47B64FAF9F81224D37820
:101F230063EEF208EFF278607460F27856E27F00B5
:101F330060027F037866EFF27BFE7A0079607F01AF
:101F43001214D9785EE2FE08E2FFEE3395E0FDFC61
:101F5300E47BBF7A5DF9F8120807E47B64FAF9F8C9
:101F63001224D37863EEF208EFF278607470F2789B
:101F730057E27F0060027F0C7866EFF27BFE7A0007
:101F830079607F021214D990FEB2E054FC4401F050
:101F9300E054F34404F0E054CFF0E0543FF02278EF
:101FA3007FE4F6D8FD758131021FE9021A20E4931C
:101FB300A3F8E493A34003F68001F208DFF4802939
:101FC300E493A3F85407240CC8C333C4540F442028
:101FD300C8834004F456800146F6DFE4800B010217
:101FE30004081020408090271EE47E019360BCA368
:101FF300FF543F30E509541FFEE493A360010ECF65
:1020030054C025E060A840B8E493A3FAE493A3F88E
:10201300E493A3C8C582C8CAC583CAF0A3C8C5824E
:10202300C8CAC583CADFE9DEE780BE122182784EC3
:10203300EEF208EFF2C394E0EE6480947F50047FE5
:102043001E801C784EE2FE08E2FFC3EE648094809B
:102053005012C3EF94E0EE6480947F40077F121226
:1020630026B4803CD3784FE2942018E264809480B5
:1020730040047F1E801E784EE2FE08E2FFD39400E8
:10208300EE648094804012D3EF9420EE64809480B9
:1020930050077F121226DA80077D017F1E12004649
:1020A3007D047F02121B6F8082AB07AA06E4F9F856
:1020B300FF7E367D6E7C011224D3EF24FFFFEE34C6
:1020C300FFFE78457470F208EEF208EFF2FDAC06FD
:1020D300E41202BAE4FBFAF9783F1200961202F313
:1020E3007848EEF208EFF2E408F2087440F208745C
:1020F30001F208F27BFE7A0079457F081214D97B3E
:10210300FE7A0079457F811214D990FEB6E0543FE0
:102113004440F0221221E37826120986E4FFFE7D73
:10212300A07C417826E2FB08E2F908E2FA08E2CB58
:10213300F812023C602440227F05121A5D7BFF7A6D
:1021430028796A7826E2FC08E2FD08E2FE08E2FF4D
:10215300782D1209861210CD801C7D027F1E122459
:102163008C7DC87F02121B6FE4FD7F1E12248C7DC1
:10217300C87F02121B6F7D047F02121B6F8095E4E0
:10218300FFFEFDFC30800C24C0FFEE34FFFE0DBDCE
:1021930000010C30810D74E02FFF74FF3EFE0DBD76
:1021A30000010C3082050DBD00010C30830C74203E
:1021B3002FFFE43EFE0DBD00010C30840C74402F54
:1021C300FFE43EFE0DBD00010CED4C7008788FE27C
:1021D300FE08E2FF2212076E788FEEF208EFF2227A
:1021E300E4FFFED2C7122855122855C2C70FBF00FD
:1021F300010E12281820C70330B3F2D3EF9417EE61
:10220300648094804008E4FFFE7D807CBF22E4FE6E
:10221300FF0FBF00010E12281820B3F57C007D6468
:1022230012075CAC06AD07EC1202BAE4FBFA797A4A
:10223300784412019FE4FBFA7988784112009622D0
:1022430078137440F2087401F20812099200002511
:1022530080781A7401F2E408F27BFE7A0079137F26
:1022630001120A7B7D017F0112259B53A23F781344
:102273007440F2087401F208120992000025807874
:102283001A7401F2E408F27BFE7A0079137F0212DA
:102293000A7B7D017F0112251753BAFE22E478439E
:1022A300F208F2E47843F208F27843E2FE08E2FF30
:1022B300C39408EE648094805022EF25E0247DF8D7
:1022C300E2FE08E2FF1228677D647F02121B6F782B
:1022D30044E22401F218E23400F280CD12273C7D5F
:1022E300C87F02121B6F7DC87F02121B6F7DC87FE0
:1022F30002121B6F80AD90000112071DFFE5DE5433
:10230300F04FF5DE90000212071DC43354E0FFE5E1
:10231300DE54DF4FF5DE120704FFD3941F502B90DA
:10232300000312071DFED39401501F9000041207EF
:102333001DFDD394035013EDC43354E0FDEEC433B9
:10234300333354804D4F90FEA8F022C0E0C083C0C9
:1023530082C0D075D000C000C007E59A30E0245396
:102363009AFE7871E2C394804002E4F27871E2FF4E
:1023730004F274122FF582E43401F583E59BF0082F
:102383007405F2E59A30E107539AFD7870E4F2D0D0
:1023930007D000D0D0D082D083D0E032C0E0C08359
:1023A300C082C0D075D000C000C007E5AC30E024C7
:1023B30053ACFE7876E2C394404002E4F27876E2CE
:1023C300FF04F274922FF582E43401F583E5ADF056
:1023D300087405F2E5AC30E10753ACFD7875E4F21F
:1023E300D007D000D0D0D082D083D0E032C0E0C0BC
:1023F30083C082C0D075D000C000C007E58430E040
:10240300245384FE787BE2C394204002E4F2787B79
:10241300E2FF04F274522FF582E43402F583E5857A
:10242300F0087405F2E58430E1075384FD787AE41B
:10243300F2D007D000D0D0D082D083D0E032C0E039
:10244300C083C082C0D075D000C000C007309823BD
:10245300C298786CE2C394804002E4F2786CE2FFA5
:1024630004F274922FF582E43400F583E599F008C1
:102473007405F2309906C299786BE4F2D007D00064
:10248300D0D0D082D083D0E032ED7011EFF404FECF
:10249300782AF208EFF208F208EEF2801DEDB4029A
:1024A3000F782AEFF2F40408F208F208EFF2800A38
:1024B300E4782AF208F208F208F278547C007DFEF0
:1024C3007BFE7A00792A7E007F041206DE021E223A
:1024D300C2D5E830E70FB2D5E4C39BFBE49AFAE434
:1024E30099F9E498F8EC30E717B2D51225091208E8
:1024F30092E4C39BFBE49AFAE499F9E498F8800325
:1025030012089230D50DE4C39FFFE49EFEE49DFDC7
:10251300E49CFC22EFD3940140037FFF22EDD3948C
:102523000340037FFF22E5AF54FE4FF5AFED700686
:1025330053B6FE53B5FEEDB4010653B6FE43B501E3
:10254300EDB4020643B60153B5FEEDB4030643B63C
:102553000143B5017F0022EFD3940140037FFF22A3
:10256300EDD3940340037FFF22EF7004C2AD8002DA
:10257300D2ADED700553B7DFC2BDEDB4010553B75E
:10258300DFD2BDEDB4020543B720C2BDEDB40305F0
:1025930043B720D2BD7F0022EFD3940140037FFFD6
:1025A30022EDD3940340037FFF22EF7004C2AC807B
:1025B30002D2ACED700553B7EFC2BCEDB4010553C5
:1025C300B7EFD2BCEDB4020543B710C2BCEDB40300
:1025D3000543B710D2BC7F00222085127891E2B464
:1025E300010CE94A60031209EAE47891F22230858A
:1025F300187891E27013781608E2FA08E2F94A6053
:10260300031209EA78917401F22278147408F2181B
:102613007401F27BFE7A0079137F03121BCE7814C8
:102623007480F2187403F27BFE7A0079137F04122C
:102633001BCEC2C7C2B32278147404F21814F27BFF
:10264300FE7A0079137F05121BCE78147480F2187A
:102653007403F27BFE7A007913E4FF121BCEC2CA25
:10266300C287227813741FF2E47816F20804F2E4A6
:102673007814F20804F27BFE7A0079131222F97FB0
:10268300011228327D01E4FF02255A781474F0F216
:10269300E418F27BFE7A0079137F01121BCE7814C3
:1026A300740FF2E418F27BFE7A0079137F02021BA7
:1026B300CEEF24F1FE7850F208EFF208EEF208EFC5
:1026C300F278547C007DFE7BFE7A0079507E007F99
:1026D300041206DE021E227850EFF224F1FE08F205
:1026E30008EFF208EEF278547C007DFE7BFE7A0060
:1026F30079507E007F041206DE021E22781674FFD4
:10270300F2087428F2087462F27BFF7A28792512A2
:1027130025DC7D047F02121B6F80E1819101828F92
:102723000000828D0000907D04170497052705752E
:10273300062006E007B8082D00E4784CF208F27B87
:10274300FE7A0079457F081214D97BFE7A00794519
:102753007F810214D9E4FF1227C57DC87F02121BB3
:102763006FE4FF1227D77DC87F02121B6F80E6122A
:1027730000267F01121A5D7F02121A5D7F07121A6B
:102783005DE4FF021AE678147410F2187403F27B06
:10279300FE7A007913FF121BCEC2B4227814740898
:1027A300F2187401F27BFE7A007913FF021BCE78D4
:1027B300147403F2E418F27BFE7A0079137F0102AA
:1027C3001BCEEF7003D28722EFB40103D2CA22D209
:1027D300CAD28722EF7003C28722EFB40103C2CAB1
:1027E30022C2CAC287227814741FF2E418F27BFE55
:1027F3007A007913FF021BCE2772275826FF211771
:0428030022A0202EC1
:10280900283E8F99786B7401F2786BE270FB227520
:102819000E04750F1BD50FFDD50EFA221200267F67
:10282900021227C57F05021A5DEFB4010443BC807B
:102839002253BC7F227D047F02121B6F80F712276F
:102849008943BA802212268E43BA8022750E4ED54C
:102859000EFD2212279F0226667F020227D7022039
:07286900AC252E32660A00C7
:00000001FF
